:020000040800F2
:10000000C0040020BD180008AD170008AF17000895
:10001000B1170008B3170008B5170008000000006A
:10002000000000000000000000000000B7170008FA
:10003000B917000800000000BB170008BD17000832
:10004000D9180008DD180008E1180008E5180008B4
:10005000E9180008ED180008F1180008F518000864
:10006000F9180008FD180008011900080519000812
:10007000091900080D1900081119000815190008C0
:10008000191900081D190008211900082519000870
:10009000C1170008C5170008CD1700082919000866
:1000A0002D19000831190008351900083919000800
:1000B0003D190008CF17000841190008451900082C
:1000C000491900084D190008511900085519000870
:1000D000591900085D190008611900086519000820
:1000E000691900086D1900087119000875190008D0
:1000F000791900087D190008811900088519000880
:10010000891900088D19000891190008951900082F
:10011000991900089D190008A1190008A5190008DF
:10012000A9190008AD190008B1190008B51900088F
:10013000B9190008BD190008C1190008C51900083F
:10014000C9190008CD190008D1190008D5190008EF
:10015000D9190008DD190008E1190008E51900089F
:10016000E9190008ED190008F1190008F51900084F
:10017000F9190008FD190008011A00080000000024
:10018000051A0008091A000838B5040025D094F8AB
:10019000200010B9204600F0B1FA2068016821F073
:1001A0000201016000F01AFB0546206841688A07D9
:1001B00005D500F013FB401B0B28F6D30BE000F035
:1001C0008CF8054620684168CA0708D400F006FB91
:1001D000401B0B28F6D300F078F8012032BD217EB9
:1001E000012904D1026842F08002026003E0016844
:1001F00021F080010160607E00F03DF80CBF41F00D
:10020000400121F040010160A07E00F034F80CBFF5
:1002100041F0200121F020010160E07E00F02BF888
:100220000CBF21F0100141F010010160207F00F0AF
:1002300022F80CBF41F0080121F008010160607F45
:1002400000F019F80CBF41F0040121F00401016035
:10025000A268E0682169024360690A436168024359
:100260002068491E0A43C26100216162012084F8AE
:100270002000002032BD012820680168704738B591
:10028000044694F82000012819D1022184F8201096
:100290002068026852085200026000F09FFA05468A
:1002A00020684168C80707D500F098FA401B0B2862
:1002B000F6D300F00AF806E00020606232BD606A02
:1002C00040F400206062012032BD606A40F40030DA
:1002D0006062052184F820107047016841F0010137
:1002E000016000F07BBAF0B590F820400568AD6879
:1002F000012C18BF022C55D115F0E05F4ED0C5F38C
:100300000164032C03D3416A41F400014DE001254F
:10031000A5401D6024010368CE6803F5C0758B6895
:100320001BB90B6846EA435603E04F6843EAC7032C
:100330001E432E5105680B6905F5C2763351097DC0
:10034000012906D1036803F5C2710D5945F4807582
:100350000D519379D17955791B0443EA01631179E1
:1003600043EA0523056825440B43C5F88C3193788F
:10037000D17855781B0443EA01631178026843EA97
:10038000052322440B43C2F88831006800F5C07091
:10039000015941F0010101510020F0BD416A41F4D1
:1003A000001102E0416A41F4802141620120F0BD68
:1003B000416A41F48021416201207047F0B590F814
:1003C0002040012C18BF022C66D10029046801D1FD
:1003D000E56800E0256915F0030F03D1416A41F497
:1003E00000115CE00D0104F5D876745914F0040492
:1003F0009460066806F5D87603D17459640D1460CC
:1004000002E07659F6085660046804F5D876775904
:1004100007F00207D76000F043F806F00F061661F8
:1004200000F03EF8C6F30724946100F039F8360C6A
:10043000566102682A44D2F8B8411C7006682E44FE
:10044000D6F8B821120A5A7004682C44D4F8B8219E
:10045000120C9A7004682C44D4F8B821120EDA7089
:1004600000F023F81A7100F020F8120A5A7100F017
:100470001CF8120C9A7100F018F8120EDA7100686C
:1004800021B9C16841F02001C16003E0016941F078
:10049000200101610020F0BD416A41F4802184E720
:1004A00004682C44D4F8B461704704682C44D4F830
:1004B000BC21704790F82020012A18BF022A03D1DE
:1004C00000684269114300E072E741610020704713
:1004D0002DE9F84F05464FF0000828684669D0F826
:1004E00004B08468D0F80C90D0F810A08769F107A8
:1004F00045D5E20713D501218160A00703D5284621
:1005000000F072F90BE0600748BF4FF4006806D4B2
:1005100020074EBF4FF48058284600F066F9E005EA
:1005200015D52A684FF48071A005916003D528463F
:1005300000F05CF90BE0600548BF48F4005806D4B1
:1005400020054EBF48F48048284600F050F9E003EB
:1005500015D52A684FF48031A003916003D5284651
:1005600000F046F90BE0600348BF48F4004806D4A9
:1005700020034EBF48F48038284600F03AF930078F
:1005800048BF5FEAC96104D52968102048F40078A3
:10059000C860700748BF5FEA097105D52A6808205E
:1005A000D060284600F026F9B00707D52968C8684A
:1005B00010F0030F1CBF284600F004FA700648BF75
:1005C0005FEACA6104D52968102048F48068086190
:1005D000B00648BF5FEA0A7105D52A680820106195
:1005E000284600F00FFAF00607D52968086910F0D0
:1005F000030F1CBF284600F006FAB00348BF5FEAAD
:10060000CB6105D52A6810205060284600F0FCF91F
:10061000F00348BF5FEA0B7105D52A6808205060D7
:10062000284600F0F2F9300440D55FEA4B713AD524
:10063000F00503D5F90748BF48F00108B00503D518
:10064000B90748BF48F00208700503D5790748BFCD
:1006500048F00408300526D517F0700F23D007F0B6
:100660007007102F0CD0202F0DD0302F0ED0402F20
:100670000FD0502F10D0602F08BF48F480780DE0C5
:1006800048F008080AE048F0100807E048F02008A1
:1006900004E048F0400801E048F0800828688169DB
:1006A00021F070018161042029684860B8F1000FD1
:1006B00008D0686A48EA000068622846BDE8F24F40
:1006C00000F0A4B9BDE8F18F81B0002000900022B5
:1006D0003D48416841F480414160416801F48041F6
:1006E000009100990092036843F080530360006812
:1006F00000F080500090009801B0704710B586B0AF
:1007000004461422002101A800F081F921682F4835
:1007100081423BD100222E480092016941F00071D4
:100720000161016901F000710091009900920321BB
:10073000036843F0080303600222006800F0080029
:100740000090009823480191029200210391032216
:1007500009210591049201A900F064F90022002109
:10076000142000F06DFA142000F087FA0022002116
:10077000152000F065FA152000F07FFA0022002114
:10078000162000F05DFA162000F077FA06B010BDD2
:1007900000681149884200D0704780B500220A489D
:1007A0000092016841F0020101600021006800F040
:1007B0000200009000981D2000F042FABDE80240BF
:1007C0001D2000F05ABA000040380240006400408A
:1007D00030380240000C02400004004001484068EC
:1007E000704700BFAC0000207047704770477047EB
:1007F000704770477047000070B586B000F068FA27
:1008000000F081F80020784D784E00904FF480542D
:10081000296841F0800129600021286800F08000EB
:100820000090009800912A6842F001022A6028682E
:1008300000F001000090009800912A6842F0080240
:100840002A600122286800F008000090009968489A
:1008500002920221049100220392019401A900F066
:10086000E1F864483060062171604FF48010002286
:100870004FF420217061B260F2603161B261B283E5
:100880003046FFF781FC40F213413046FFF712FE7D
:100890003046FFF7F4FC0020009045F2072229695A
:1008A00041F0020129612869534900F002000090DB
:1008B0000098B1620020306340F2CF71B0633064C1
:1008C000F262716306F1280000F01CFA029402A99A
:1008D00006F1280000F0E9FA00210091019106F1EB
:1008E0002800694600F0D8FB002200211D2000F0FE
:1008F000A7F91D2000F0C1F906F1280000F00FFA59
:1009000000F04DF8FCE780B592B03022002106A837
:1009100000F07DF81422002101A800F078F80020F2
:1009200000904FF480333548016841F080510160F8
:100930000021006800F0805000900098304800913D
:10094000026842F4804202600122006800F48040A4
:10095000009006A80099069202214FF480020C91A3
:100960000D9208214FF4A8720E910F9202210722D6
:1009700007931091119200F0D5FB02210291002201
:1009800003920F204FF4A051019004914FF4805234
:100990000592052101A800F04DFD13B000BD80B502
:1009A0001248052140F2EA328167C2660421002222
:1009B000016742676B4600F19C0200F16801FFF796
:1009C00092FC01BD094800F1A40300F1800200215E
:1009D000FFF7F4BC00680849884204D14FF4805105
:1009E000034800F0F6B8704730380240000000209D
:1009F000000C024000640040000400404038024007
:100A0000007000407047704770477047704710B5DE
:100A1000044610460A460146204600F0CBFD20461B
:100A200010BD00002DE9F84F0D4600266C496D4AB7
:100A30000F23044601202F68B04000EA07088045D4
:100A400040F0C1804FEA460C032707FA0CF76FEA23
:100A5000070E6F68012F18BF022F03D0112F18BF88
:100A6000122F12D1A768D5F80C900EEA070709FAE1
:100A70000CF949EA0707A760676827EA00006F6872
:100A8000C7F30017B74038436060E068AF680EEA0C
:100A9000000007FA0CF73843E060B0006F68022FDF
:100AA00018BF122F12D1F70804EB870700F01C09BA
:100AB000D7F820A003FA09FB2AEA0B0AD5F810B0F0
:100AC0000BFA09F949EA0A09C7F8209027680EEAE3
:100AD000070E2F7907F0030707FA0CF747EA0E070E
:100AE00027606F68FF006ED5002700974FEA960CCD
:100AF000176847F48047176000F00C00176807F488
:100B00008047009703FA00FE009F374F57F82C707C
:100B100027EA0E0E354FBC4208BF002722D0344FC3
:100B2000BC4208BF01271DD0324FBC4208BF02277C
:100B300018D0314FBC4208BF032713D02F4FBC42FF
:100B400008BF04270ED02E4FBC4208BF052709D08E
:100B50002C4FBC4208BF062704D02B4FBC420CBF11
:100B60000727082707FA00F01F4F40EA0E0047F852
:100B70002C006FEA08000F6800EA070C6F68FF039B
:100B800048BF48EA0C0CC1F800C04F6800EA070CE7
:100B90006F68BF0348BF48EA0C0CC1F804C08F68F7
:100BA00000EA070C6F68FF0248BF48EA0C0CC1F866
:100BB00008C0CF6800EA070C6868800248BF48EAAE
:100BC0000C0CC1F80CC0761C0F2E7FF633AFBDE8BD
:100BD000F18F42690A408A4208BF09048161704767
:100BE000003C014044380240083801400000024007
:100BF0000004024000080240000C024000100240C5
:100C00000014024000180240001C024009010200CA
:100C100002D4294881547047284B02F00F021A442D
:100C200002F8041C7047264B19684FF6FF020002B9
:100C3000114000F4E06008432249084318607047FF
:100C400070B51F4B1C68C4F302230124C3F10705D0
:100C5000052D2EBF0F2504FA05F56D1E1E1D072E4E
:100C600034BF0023DB1E2940994004FA03F3BDE89A
:100C700070405B1E1A401143C8E7010007D40122EF
:100C800000F01F01104B8A40400943F820207047B4
:100C900010B5401EB0F1807F01D3012010BD0B4C78
:100CA00060600F214FF0FF30FFF7B0FF0021A1601F
:100CB00007202060002010BD00E400E018ED00E0F7
:100CC0000CED00E00000FA0500E100E010E000E0BB
:100CD00080B50B48016841F400710160026842F47C
:100CE00080620260016841F4807101600320FFF7B7
:100CF0009AFF002000F092FCFFF7E6FC002002BD06
:100D0000003C024038B5040001D1012032BD00F0A2
:100D100024F818B900F01DF8FFF73AFD0FE000685D
:100D2000C16841F00101C160816801F00701062935
:100D300003D0016841F001010160002070470220EA
:100D40006870211D206800F00DF9012068700020F6
:100D500032BD002129702046704704F13C056878B7
:100D6000704710B50446206801698A0715D5C16827
:100D70008A0712D56FF00201016101222277806992
:100D800010F0030F204602D000F068FC03E000F0F2
:100D900066FC00F087F800202077206801694A0788
:100DA00015D5C1684A0712D56FF00401016102220E
:100DB0002277806910F4407F204602D000F04EFC7C
:100DC00003E000F04CFC00F06DF800202077206874
:100DD00001690A0715D5C1680A0712D56FF0080125
:100DE000016104222277C06910F0030F204602D06F
:100DF00000F034FC03E000F032FC00F053F8002077
:100E0000207720680169CA0615D5C168CA0612D5BF
:100E10006FF01001016108222277C06910F4407F51
:100E2000204602D000F01AFC03E000F018FC00F0AD
:100E300039F80020207720680169CA0708D5C16801
:100E4000CA0705D56FF0010101612046FFF7C2FD19
:100E5000206801690A0608D5C1680A0605D56FF041
:100E600080010161204600F0FBFB206801694A0611
:100E700008D5C1684A0605D56FF0400101612046DA
:100E800000F0EFFB206801698A060AD5C1688A066E
:100E900007D56FF0200101612046BDE8104000F049
:100EA000E1BB10BD204600F0DEBB38B500F04EF8C7
:100EB00001D1022032BD0120207002226270DFF8D1
:100EC0003C012A689368034093600868020018BFD9
:100ED00010282DD0202818BF302829D0402823D012
:100EE000502816D0602818D0702803D0B0F5005FC5
:100EF00007D021E000F025F82868816841F07701EB
:100F000005E000F01EF82868816841F480418160A6
:100F100012E000F012F850210BE0CA684968286816
:100F200000F093F8602104E000F007F8402100E0B1
:100F30000146286800F09BF80EE0CA6849682868F6
:100F400074E0CB684A688968286898E0054605F12E
:100F50003C04207801287047012060700021217036
:100F6000002032BDF0B5264C0568264B264E274F93
:100F7000DFF89CC0A04218BFB0F1804F07D0604599
:100F800018BFB84203D0B04218BF98420DD14A688A
:100F900025F070051543A04218BFB0F1804F17D05F
:100FA00060451CBFB842B04212D098421CBF194ADB
:100FB00090420DD0184EB0421CBF184A904207D044
:100FC000174EB0421FBF174A9042174EB04203D18E
:100FD000CA6825F4407515434A6925F08005154314
:100FE0000560A0428D68C5620A68826212BF98429D
:100FF0000969016301224261F0BD00008800FFFF22
:101000000000014000040140000C004000080040C6
:1010100000040040004001400044014000480140FD
:1010200000180040001C00400020004010B5036A7A
:10103000046A64086400046223F00A03846924F0EB
:10104000F00444EA0214846123E010B5036A23F03B
:10105000100303628369046A23F4704343EA023392
:1010600024F0A004836144EA0114046210BD826884
:1010700022F07002114341F007018160704710B502
:10108000846824F47F442143114341EA03218160B1
:1010900010BD1943016210BD70B500F13C031A7810
:1010A000012A01D1022070BD01221A7002245C7055
:1010B00005686E68AC680A6826F0700616436E60B4
:1010C00002681148824218BFB2F1804F11D00F4818
:1010D00082421CBF0E4DAA420BD00E4882421CBF5A
:1010E0000D4DAA4205D00D4882421CBF0C4DAA42AC
:1010F00004D1486824F080040443946001215970AD
:101100000020187070BD0000000001400004004085
:1011100000080040000C0040000401400040014075
:10112000001800402DE9F843040016D02078DFF8BD
:10113000F462C10713D5B06800F00C00042807D092
:10114000B06800F00C0008283DD1706841023AD523
:101150003068810303D56068002800F05E81207844
:10116000B14F810719D5B06810F00C0F07D0B068E7
:1011700000F00C0008285BD17068410258D4306838
:10118000810703D5E068012840F047813168206974
:1011900021F0F80141EAC00131602178080779D5D2
:1011A0006069A249002868D001220A60FFF716FB97
:1011B0000546706F81076DD4FFF710FB401B0228B6
:1011C000F7D903202CE16068B0F5803F04D1306886
:1011D00040F48030306011E0B0F5A02F306806D1C7
:1011E00040F480203060316841F4803105E020F423
:1011F00080303060316821F480213160606858B1FE
:10120000FFF7ECFA054630688103A8D4FFF7E6FA49
:10121000401B6528F7D3D4E7FFF7E0FA05463068AE
:1012200081039CD5FFF7DAFA401B6528F7D3C8E79E
:10123000E068A8B101213960FFF7D0FA05463068AF
:10124000810705D4FFF7CAFA401B0228F7D9B8E78F
:101250003068216920F0F80040EAC10030609CE766
:101260003860FFF7BBFA05463168880795D5FFF768
:10127000B5FA401B0228F7D9A3E70860FFF7AEFADA
:101280000546706F810705D5FFF7A8FA401B0228B5
:10129000F7D996E7207841075FD5306C0025C1006B
:1012A0000AD400950125316C41F080513164306CD5
:1012B00000F0805000900098DFF87481D8F80000AA
:1012C000C10513D4D8F8000040F48070C8F80000BD
:1012D000FFF784FA8146D8F80000C10506D4FFF76D
:1012E0007DFAA0EB09000228F5D96AE7A068012879
:1012F00005D00528306F06D140F004003067306F0C
:1013000040F0010005E0400840003067306F20F0F9
:101310000400306741F28938A06860B1FFF75EFAD7
:101320008146306F810713D4FFF758FAA0EB09000C
:101330004045F6D345E7FFF751FA8146306F810704
:1013400006D5FFF74BFAA0EB09004045F6D338E786
:101350001DB1306C20F080503064A06900285ED050
:10136000B16801F00C0108293AD002282AD10020E6
:101370003866FFF733FA05463068810105D5FFF777
:101380002DFA401B0228F7D91BE7E069216A626A3F
:101390000843A16A490840EA8210491E40EA014018
:1013A000E16A40EA0160706001203866FFF716FAD2
:1013B00004463068810132D4FFF710FA001B02287E
:1013C000F7D9FEE600203866FFF708FA04463068D1
:1013D000810124D5FFF702FA001B0228F7D9F0E6B5
:1013E00001281AD0B068E26900F48001914202BF7E
:1013F00000F03F01226A91420FD147F6C071626A44
:101400000140914202BF00F44031A26A914202BF02
:1014100000F07060E16A884201D0012000E0002005
:10142000BDE8F2830038024000004742800E474288
:10143000007000402DE9F04104000F4654D0404EAA
:10144000306800F00F00B84202D200F073F84BD1C0
:1014500020683C4D810712D5400703D5A96841F4A7
:10146000E051A9602078010703D5A86840F46040E6
:10147000A860A968A06821F0F0010143A960217863
:10148000C80729D56068012802D129688A0305E0C8
:10149000022818BF032803D129688A0103D423E056
:1014A00029688A0720D5A968890840EA8100A860D0
:1014B000FFF794F98046A868616800F00C00B0EB73
:1014C000810F09D0FFF78AF9A0EB080041F28931BA
:1014D0008842F0D303202BE0306800F00F008742F1
:1014E00004D200F027F801D0012021E02078410744
:1014F00005D5AA68E06822F4E0520243AA60217888
:10150000080706D5A968206921F4604141EAC001B5
:10151000A96000F01FF8AA680B490C4BC2F3031234
:10152000895CC84018600A48006800F077F800201D
:10153000BDE8F0813770316801F00F01B9427047A2
:10154000003C02400038024008180008B8000020A3
:10155000B400002030B5144C606800F00C00042882
:1015600002D0082802D01DE0104830BD2268206853
:101570000023410202F03F0204D525680B49C5F360
:10158000881003E020680A49C0F38810A1FB00011D
:1015900000F06AF82168C1F30141491C4900B0FB21
:1015A000F1F030BD024830BD0438024000127A002C
:1015B0000024F40062F30F2262F31F42401810F07F
:1015C000030308D0C91A1FD3DB0748BF00F8012D59
:1015D00028BF20F8022D130030B4144615461039E8
:1015E00028BF20E93C00FAD8490728BF20E90C00B1
:1015F00048BF40F8042D890028BF20F8022D48BFBD
:1016000000F8012D30BC7047C91818BF00F8012D33
:10161000CB0728BF00F8012D7047000038B50D4DED
:101620000D4B2A7804464FF47A711868B1FBF2F238
:10163000B0FBF2F0FFF72CFB50B9102C08D20022BF
:1016400021464FF0FF30FFF7FBFAAC60002032BDBF
:10165000012032BDAC000020B80000207047704768
:101660007047704770477047D3BBD9B1B2F5803F20
:101670005BD2022A1ED98C46B1FBF2F102FB11C3E8
:101680001B0443EA1043B3FBF2FC02FB1C3380B2A1
:1016900040EA0343B3FBF2F002FB103240EA0C4095
:1016A00000237047022A05D98446B0FBF2F002FB02
:1016B00010C270474AB105D100F0010249085FEA43
:1016C0003000704700220023704700F051B80B0033
:1016D0000200002100207047F7D30022002370474A
:1016E000904271EB030CF2D370B5B1FA81F4B3FA06
:1016F00083F52C1BA340C4F1200532FA05F63343D1
:10170000A2405FF00046E64002E05B085FEA32027A
:10171000841A71EB030524BF204629467641F4D391
:1017200002000B003000002170BD70B5B1FA81F4E9
:10173000B2FA82F5C4F120046419B4F12006DAD3B8
:10174000B2405FF00044F440002502E052085FEA36
:101750003303C61A71EB020E24BF30467146644152
:101760006D41F3D302000B002000290070BD000082
:10177000704730B5016884684218416802EB510334
:10178000C90703D54C4401E0491C05D19A420AD04F
:1017900012F9011B12F8015B002904F8015BF3D474
:1017A000491EF7D5F2E70C3030BD00007047FEE768
:1017B000FEE7FEE7FEE770477047704700F00EB89F
:1017C00001E0000000BF0348FEF782BEFBE70248CD
:1017D000FFF7C7BA00000020280000200248416837
:1017E00002788A1842607047AC0000200448054A1D
:1017F000016841F4700101604FF0006010607047B3
:1018000088ED00E008ED00E00000000000000000AE
:10181000010203040607080910B507497944183185
:10182000064C7C44163404E00A68081D11448847BD
:101830000146A142F8D110BD2C0000003800000084
:101840004EF68851CEF20001086840F4700008603E
:10185000BFF34F8FBFF36F8F4FF00070E1EE100AB0
:10186000704700000FFFFFFFA401000030000000E0
:101870000000002000F00DF8002801D0FFF7CCFF99
:10188000AFF300800020AFF30080FEF7B5FF00F05B
:1018900002F80120704700F001B800000746384602
:1018A00000F002F8FBE7000080B5AFF30080024AC9
:1018B00011001820ABBEFBE726000200014880475C
:1018C00001480047ED170008CD180008AFF300806D
:1018D000FFF7B6FFFFF7CEFFFFF7FEBFFFF7FEBF34
:1018E000FFF7FEBFFFF7FEBFFFF7FEBFFFF7FEBF2C
:1018F000FFF7FEBFFFF7FEBFFFF7FEBFFFF7FEBF1C
:10190000FFF7FEBFFFF7FEBFFFF7FEBFFFF7FEBF0B
:10191000FFF7FEBFFFF7FEBFFFF7FEBFFFF7FEBFFB
:10192000FFF7FEBFFFF7FEBFFFF7FEBFFFF7FEBFEB
:10193000FFF7FEBFFFF7FEBFFFF7FEBFFFF7FEBFDB
:10194000FFF7FEBFFFF7FEBFFFF7FEBFFFF7FEBFCB
:10195000FFF7FEBFFFF7FEBFFFF7FEBFFFF7FEBFBB
:10196000FFF7FEBFFFF7FEBFFFF7FEBFFFF7FEBFAB
:10197000FFF7FEBFFFF7FEBFFFF7FEBFFFF7FEBF9B
:10198000FFF7FEBFFFF7FEBFFFF7FEBFFFF7FEBF8B
:10199000FFF7FEBFFFF7FEBFFFF7FEBFFFF7FEBF7B
:1019A000FFF7FEBFFFF7FEBFFFF7FEBFFFF7FEBF6B
:1019B000FFF7FEBFFFF7FEBFFFF7FEBFFFF7FEBF5B
:1019C000FFF7FEBFFFF7FEBFFFF7FEBFFFF7FEBF4B
:1019D000FFF7FEBFFFF7FEBFFFF7FEBFFFF7FEBF3B
:1019E000FFF7FEBFFFF7FEBFFFF7FEBFFFF7FEBF2B
:1019F000FFF7FEBFFFF7FEBFFFF7FEBFFFF7FEBF1B
:101A0000FFF7FEBFFFF7FEBFFFF7FEBF8100E30059
:101A10000468656C6C6FF5000001F9000010FC00B3
:041A20000224F400A8
:04000005080018CD0A
:00000001FF
